{
  "contractName": "Mintix",
  "abi": [
    {
      "inputs": [],
      "stateMutability": "payable",
      "type": "constructor",
      "payable": true
    },
    {
      "anonymous": false,
      "inputs": [
        {
          "indexed": true,
          "internalType": "string",
          "name": "tCId",
          "type": "string"
        },
        {
          "indexed": true,
          "internalType": "string",
          "name": "mCId",
          "type": "string"
        },
        {
          "indexed": false,
          "internalType": "string[]",
          "name": "SIDs",
          "type": "string[]"
        }
      ],
      "name": "AddMovieEvent",
      "type": "event"
    },
    {
      "anonymous": false,
      "inputs": [
        {
          "indexed": true,
          "internalType": "string",
          "name": "city",
          "type": "string"
        },
        {
          "indexed": true,
          "internalType": "string",
          "name": "tCId",
          "type": "string"
        }
      ],
      "name": "AddTheatreEvent",
      "type": "event"
    },
    {
      "anonymous": false,
      "inputs": [
        {
          "indexed": false,
          "internalType": "uint256",
          "name": "amount",
          "type": "uint256"
        },
        {
          "indexed": false,
          "internalType": "uint256",
          "name": "when",
          "type": "uint256"
        }
      ],
      "name": "WithdrawalEvent",
      "type": "event"
    },
    {
      "inputs": [
        {
          "internalType": "string",
          "name": "",
          "type": "string"
        },
        {
          "internalType": "uint256",
          "name": "",
          "type": "uint256"
        }
      ],
      "name": "_seatsStatusOfShow",
      "outputs": [
        {
          "internalType": "bool",
          "name": "",
          "type": "bool"
        }
      ],
      "stateMutability": "view",
      "type": "function",
      "constant": true
    },
    {
      "inputs": [],
      "name": "owner",
      "outputs": [
        {
          "internalType": "address payable",
          "name": "",
          "type": "address"
        }
      ],
      "stateMutability": "view",
      "type": "function",
      "constant": true
    },
    {
      "inputs": [],
      "name": "tixContractAddress",
      "outputs": [
        {
          "internalType": "address",
          "name": "",
          "type": "address"
        }
      ],
      "stateMutability": "view",
      "type": "function",
      "constant": true
    },
    {
      "inputs": [],
      "name": "withdraw",
      "outputs": [],
      "stateMutability": "nonpayable",
      "type": "function"
    },
    {
      "inputs": [
        {
          "internalType": "address",
          "name": "_tixContractAddress",
          "type": "address"
        }
      ],
      "name": "saveTixContract",
      "outputs": [],
      "stateMutability": "nonpayable",
      "type": "function"
    },
    {
      "inputs": [
        {
          "internalType": "string",
          "name": "city",
          "type": "string"
        },
        {
          "internalType": "string",
          "name": "tCId",
          "type": "string"
        }
      ],
      "name": "addTheatre",
      "outputs": [],
      "stateMutability": "nonpayable",
      "type": "function"
    },
    {
      "inputs": [
        {
          "internalType": "string",
          "name": "mCId",
          "type": "string"
        },
        {
          "internalType": "string[]",
          "name": "sId",
          "type": "string[]"
        }
      ],
      "name": "addMovie",
      "outputs": [],
      "stateMutability": "nonpayable",
      "type": "function"
    },
    {
      "inputs": [],
      "name": "getCities",
      "outputs": [
        {
          "internalType": "string[]",
          "name": "cities",
          "type": "string[]"
        }
      ],
      "stateMutability": "view",
      "type": "function",
      "constant": true
    },
    {
      "inputs": [
        {
          "internalType": "string",
          "name": "city",
          "type": "string"
        }
      ],
      "name": "getTheatres",
      "outputs": [
        {
          "internalType": "string[]",
          "name": "theatres",
          "type": "string[]"
        }
      ],
      "stateMutability": "view",
      "type": "function",
      "constant": true
    },
    {
      "inputs": [
        {
          "internalType": "string",
          "name": "tCId",
          "type": "string"
        }
      ],
      "name": "getMovies",
      "outputs": [
        {
          "internalType": "string[]",
          "name": "movies",
          "type": "string[]"
        }
      ],
      "stateMutability": "view",
      "type": "function",
      "constant": true
    },
    {
      "inputs": [
        {
          "internalType": "string",
          "name": "sId",
          "type": "string"
        },
        {
          "internalType": "uint256[]",
          "name": "seatNumbers",
          "type": "uint256[]"
        },
        {
          "internalType": "uint256",
          "name": "tokenId",
          "type": "uint256"
        }
      ],
      "name": "mintTix",
      "outputs": [],
      "stateMutability": "nonpayable",
      "type": "function"
    },
    {
      "inputs": [
        {
          "internalType": "string",
          "name": "sId",
          "type": "string"
        },
        {
          "internalType": "uint256[]",
          "name": "seatNumbers",
          "type": "uint256[]"
        },
        {
          "internalType": "uint256",
          "name": "tokenId",
          "type": "uint256"
        }
      ],
      "name": "burnTix",
      "outputs": [],
      "stateMutability": "nonpayable",
      "type": "function"
    }
  ],
  "bytecode": "0x6080604052336000806101000a81548173ffffffffffffffffffffffffffffffffffffffff021916908373ffffffffffffffffffffffffffffffffffffffff160217905550611f49806100536000396000f3fe608060405234801561001057600080fd5b50600436106100b45760003560e01c8063a131763111610071578063a131763114610167578063a6c83e9f14610185578063e0b9b071146101b5578063e919e05e146101d1578063f39374c314610201578063ff57ae0f1461021d576100b4565b80631e875b75146100b95780633ccfd60b146100d5578063461efd31146100df5780637346188e146100fb5780637ed17d9b1461012b5780638da5cb5b14610149575b600080fd5b6100d360048036038101906100ce9190611293565b610239565b005b6100dd6103a0565b005b6100f960048036038101906100f49190611404565b6104d0565b005b6101156004803603810190610110919061148f565b610681565b6040516101229190611622565b60405180910390f35b610133610778565b6040516101409190611685565b60405180910390f35b61015161079e565b60405161015e91906116c1565b60405180910390f35b61016f6107c2565b60405161017c9190611622565b60405180910390f35b61019f600480360381019061019a91906116dc565b61089b565b6040516101ac9190611753565b60405180910390f35b6101cf60048036038101906101ca919061179a565b6108e0565b005b6101eb60048036038101906101e6919061148f565b6109b2565b6040516101f89190611622565b60405180910390f35b61021b600480360381019061021691906117c7565b610aa9565b005b61023760048036038101906102329190611404565b610d6d565b005b6006600460003373ffffffffffffffffffffffffffffffffffffffff1673ffffffffffffffffffffffffffffffffffffffff1681526020019081526020016000206040516102879190611942565b9081526020016040518091039020829080600181540180825580915050600190039060005260206000200160009091909190915090816102c79190611af0565b50806007836040516102d99190611bf3565b908152602001604051809103902090805190602001906102fa929190610f79565b50816040516103099190611bf3565b6040518091039020600460003373ffffffffffffffffffffffffffffffffffffffff1673ffffffffffffffffffffffffffffffffffffffff16815260200190815260200160002060405161035d9190611942565b60405180910390207f96b4aa1d2634333059f3920c517fa7a5b7f9f282cbc911a5f71ffcb58f9b3d5b836040516103949190611622565b60405180910390a35050565b60008054906101000a900473ffffffffffffffffffffffffffffffffffffffff1673ffffffffffffffffffffffffffffffffffffffff163373ffffffffffffffffffffffffffffffffffffffff161461042e576040517f08c379a000000000000000000000000000000000000000000000000000000000815260040161042590611c67565b60405180910390fd5b7faf5775a6886f31b3abd4f2379c3da25be665d67d744212488d3a7734cbece4e3474260405161045f929190611c96565b60405180910390a160008054906101000a900473ffffffffffffffffffffffffffffffffffffffff1673ffffffffffffffffffffffffffffffffffffffff166108fc479081150290604051600060405180830381858888f193505050501580156104cd573d6000803e3d6000fd5b50565b600160009054906101000a900473ffffffffffffffffffffffffffffffffffffffff1673ffffffffffffffffffffffffffffffffffffffff166342966c68826040518263ffffffff1660e01b815260040161052b9190611cbf565b600060405180830381600087803b15801561054557600080fd5b505af1158015610559573d6000803e3d6000fd5b5050505060005b825181101561067b576001151560088560405161057d9190611bf3565b908152602001604051809103902060008584815181106105a05761059f611cda565b5b6020026020010151815260200190815260200160002060009054906101000a900460ff16151514610606576040517f08c379a00000000000000000000000000000000000000000000000000000000081526004016105fd90611d55565b60405180910390fd5b60006008856040516106189190611bf3565b9081526020016040518091039020600085848151811061063b5761063a611cda565b5b6020026020010151815260200190815260200160002060006101000a81548160ff021916908315150217905550808061067390611da4565b915050610560565b50505050565b60606005826040516106939190611bf3565b9081526020016040518091039020805480602002602001604051908101604052809291908181526020016000905b8282101561076d5783829060005260206000200180546106e09061186e565b80601f016020809104026020016040519081016040528092919081815260200182805461070c9061186e565b80156107595780601f1061072e57610100808354040283529160200191610759565b820191906000526020600020905b81548152906001019060200180831161073c57829003601f168201915b5050505050815260200190600101906106c1565b505050509050919050565b600160009054906101000a900473ffffffffffffffffffffffffffffffffffffffff1681565b60008054906101000a900473ffffffffffffffffffffffffffffffffffffffff1681565b60606002805480602002602001604051908101604052809291908181526020016000905b828210156108925783829060005260206000200180546108059061186e565b80601f01602080910402602001604051908101604052809291908181526020018280546108319061186e565b801561087e5780601f106108535761010080835404028352916020019161087e565b820191906000526020600020905b81548152906001019060200180831161086157829003601f168201915b5050505050815260200190600101906107e6565b50505050905090565b6008828051602081018201805184825260208301602085012081835280955050505050506020528060005260406000206000915091509054906101000a900460ff1681565b60008054906101000a900473ffffffffffffffffffffffffffffffffffffffff1673ffffffffffffffffffffffffffffffffffffffff163373ffffffffffffffffffffffffffffffffffffffff161461096e576040517f08c379a000000000000000000000000000000000000000000000000000000000815260040161096590611c67565b60405180910390fd5b80600160006101000a81548173ffffffffffffffffffffffffffffffffffffffff021916908373ffffffffffffffffffffffffffffffffffffffff16021790555050565b60606006826040516109c49190611bf3565b9081526020016040518091039020805480602002602001604051908101604052809291908181526020016000905b82821015610a9e578382906000526020600020018054610a119061186e565b80601f0160208091040260200160405190810160405280929190818152602001828054610a3d9061186e565b8015610a8a5780601f10610a5f57610100808354040283529160200191610a8a565b820191906000526020600020905b815481529060010190602001808311610a6d57829003601f168201915b5050505050815260200190600101906109f2565b505050509050919050565b60011515610b8d600460003373ffffffffffffffffffffffffffffffffffffffff1673ffffffffffffffffffffffffffffffffffffffff1681526020019081526020016000208054610afa9061186e565b80601f0160208091040260200160405190810160405280929190818152602001828054610b269061186e565b8015610b735780601f10610b4857610100808354040283529160200191610b73565b820191906000526020600020905b815481529060010190602001808311610b5657829003601f168201915b505050505060405180602001604052806000815250610f20565b151514610bcf576040517f08c379a0000000000000000000000000000000000000000000000000000000008152600401610bc690611e5e565b60405180910390fd5b60001515600383604051610be39190611bf3565b908152602001604051809103902060009054906101000a900460ff16151503610c7357600282908060018154018082558091505060019003906000526020600020016000909190919091509081610c3a9190611af0565b506001600383604051610c4d9190611bf3565b908152602001604051809103902060006101000a81548160ff0219169083151502179055505b600582604051610c839190611bf3565b908152602001604051809103902081908060018154018082558091505060019003906000526020600020016000909190919091509081610cc39190611af0565b5080600460003373ffffffffffffffffffffffffffffffffffffffff1673ffffffffffffffffffffffffffffffffffffffff1681526020019081526020016000209081610d109190611af0565b5080604051610d1f9190611bf3565b604051809103902082604051610d359190611bf3565b60405180910390207f5d5feb954a1bc91ed2bbc5b7f998ecff4f96b22ee97dacfad504c5f1018a6a6360405160405180910390a35050565b600160009054906101000a900473ffffffffffffffffffffffffffffffffffffffff1673ffffffffffffffffffffffffffffffffffffffff166340c10f1933836040518363ffffffff1660e01b8152600401610dca929190611e7e565b600060405180830381600087803b158015610de457600080fd5b505af1158015610df8573d6000803e3d6000fd5b5050505060005b8251811015610f1a5760001515600885604051610e1c9190611bf3565b90815260200160405180910390206000858481518110610e3f57610e3e611cda565b5b6020026020010151815260200190815260200160002060009054906101000a900460ff16151514610ea5576040517f08c379a0000000000000000000000000000000000000000000000000000000008152600401610e9c90611ef3565b60405180910390fd5b6001600885604051610eb79190611bf3565b90815260200160405180910390206000858481518110610eda57610ed9611cda565b5b6020026020010151815260200190815260200160002060006101000a81548160ff0219169083151502179055508080610f1290611da4565b915050610dff565b50505050565b600081604051602001610f339190611bf3565b6040516020818303038152906040528051906020012083604051602001610f5a9190611bf3565b6040516020818303038152906040528051906020012014905092915050565b828054828255906000526020600020908101928215610fc1579160200282015b82811115610fc0578251829081610fb09190611af0565b5091602001919060010190610f99565b5b509050610fce9190610fd2565b5090565b5b80821115610ff25760008181610fe99190610ff6565b50600101610fd3565b5090565b5080546110029061186e565b6000825580601f106110145750611033565b601f0160209004906000526020600020908101906110329190611036565b5b50565b5b8082111561104f576000816000905550600101611037565b5090565b6000604051905090565b600080fd5b600080fd5b600080fd5b600080fd5b6000601f19601f8301169050919050565b7f4e487b7100000000000000000000000000000000000000000000000000000000600052604160045260246000fd5b6110ba82611071565b810181811067ffffffffffffffff821117156110d9576110d8611082565b5b80604052505050565b60006110ec611053565b90506110f882826110b1565b919050565b600067ffffffffffffffff82111561111857611117611082565b5b61112182611071565b9050602081019050919050565b82818337600083830152505050565b600061115061114b846110fd565b6110e2565b90508281526020810184848401111561116c5761116b61106c565b5b61117784828561112e565b509392505050565b600082601f83011261119457611193611067565b5b81356111a484826020860161113d565b91505092915050565b600067ffffffffffffffff8211156111c8576111c7611082565b5b602082029050602081019050919050565b600080fd5b60006111f16111ec846111ad565b6110e2565b90508083825260208201905060208402830185811115611214576112136111d9565b5b835b8181101561125b57803567ffffffffffffffff81111561123957611238611067565b5b808601611246898261117f565b85526020850194505050602081019050611216565b5050509392505050565b600082601f83011261127a57611279611067565b5b813561128a8482602086016111de565b91505092915050565b600080604083850312156112aa576112a961105d565b5b600083013567ffffffffffffffff8111156112c8576112c7611062565b5b6112d48582860161117f565b925050602083013567ffffffffffffffff8111156112f5576112f4611062565b5b61130185828601611265565b9150509250929050565b600067ffffffffffffffff82111561132657611325611082565b5b602082029050602081019050919050565b6000819050919050565b61134a81611337565b811461135557600080fd5b50565b60008135905061136781611341565b92915050565b600061138061137b8461130b565b6110e2565b905080838252602082019050602084028301858111156113a3576113a26111d9565b5b835b818110156113cc57806113b88882611358565b8452602084019350506020810190506113a5565b5050509392505050565b600082601f8301126113eb576113ea611067565b5b81356113fb84826020860161136d565b91505092915050565b60008060006060848603121561141d5761141c61105d565b5b600084013567ffffffffffffffff81111561143b5761143a611062565b5b6114478682870161117f565b935050602084013567ffffffffffffffff81111561146857611467611062565b5b611474868287016113d6565b925050604061148586828701611358565b9150509250925092565b6000602082840312156114a5576114a461105d565b5b600082013567ffffffffffffffff8111156114c3576114c2611062565b5b6114cf8482850161117f565b91505092915050565b600081519050919050565b600082825260208201905092915050565b6000819050602082019050919050565b600081519050919050565b600082825260208201905092915050565b60005b8381101561153e578082015181840152602081019050611523565b8381111561154d576000848401525b50505050565b600061155e82611504565b611568818561150f565b9350611578818560208601611520565b61158181611071565b840191505092915050565b60006115988383611553565b905092915050565b6000602082019050919050565b60006115b8826114d8565b6115c281856114e3565b9350836020820285016115d4856114f4565b8060005b8581101561161057848403895281516115f1858261158c565b94506115fc836115a0565b925060208a019950506001810190506115d8565b50829750879550505050505092915050565b6000602082019050818103600083015261163c81846115ad565b905092915050565b600073ffffffffffffffffffffffffffffffffffffffff82169050919050565b600061166f82611644565b9050919050565b61167f81611664565b82525050565b600060208201905061169a6000830184611676565b92915050565b60006116ab82611644565b9050919050565b6116bb816116a0565b82525050565b60006020820190506116d660008301846116b2565b92915050565b600080604083850312156116f3576116f261105d565b5b600083013567ffffffffffffffff81111561171157611710611062565b5b61171d8582860161117f565b925050602061172e85828601611358565b9150509250929050565b60008115159050919050565b61174d81611738565b82525050565b60006020820190506117686000830184611744565b92915050565b61177781611664565b811461178257600080fd5b50565b6000813590506117948161176e565b92915050565b6000602082840312156117b0576117af61105d565b5b60006117be84828501611785565b91505092915050565b600080604083850312156117de576117dd61105d565b5b600083013567ffffffffffffffff8111156117fc576117fb611062565b5b6118088582860161117f565b925050602083013567ffffffffffffffff81111561182957611828611062565b5b6118358582860161117f565b9150509250929050565b7f4e487b7100000000000000000000000000000000000000000000000000000000600052602260045260246000fd5b6000600282049050600182168061188657607f821691505b6020821081036118995761189861183f565b5b50919050565b600081905092915050565b60008190508160005260206000209050919050565b600081546118cc8161186e565b6118d6818661189f565b945060018216600081146118f1576001811461190657611939565b60ff1983168652811515820286019350611939565b61190f856118aa565b60005b8381101561193157815481890152600182019150602081019050611912565b838801955050505b50505092915050565b600061194e82846118bf565b915081905092915050565b60006020601f8301049050919050565b600082821b905092915050565b6000600883026119a67fffffffffffffffffffffffffffffffffffffffffffffffffffffffffffffffff82611969565b6119b08683611969565b95508019841693508086168417925050509392505050565b6000819050919050565b60006119ed6119e86119e384611337565b6119c8565b611337565b9050919050565b6000819050919050565b611a07836119d2565b611a1b611a13826119f4565b848454611976565b825550505050565b600090565b611a30611a23565b611a3b8184846119fe565b505050565b5b81811015611a5f57611a54600082611a28565b600181019050611a41565b5050565b601f821115611aa457611a75816118aa565b611a7e84611959565b81016020851015611a8d578190505b611aa1611a9985611959565b830182611a40565b50505b505050565b600082821c905092915050565b6000611ac760001984600802611aa9565b1980831691505092915050565b6000611ae08383611ab6565b9150826002028217905092915050565b611af982611504565b67ffffffffffffffff811115611b1257611b11611082565b5b611b1c825461186e565b611b27828285611a63565b600060209050601f831160018114611b5a5760008415611b48578287015190505b611b528582611ad4565b865550611bba565b601f198416611b68866118aa565b60005b82811015611b9057848901518255600182019150602085019450602081019050611b6b565b86831015611bad5784890151611ba9601f891682611ab6565b8355505b6001600288020188555050505b505050505050565b6000611bcd82611504565b611bd7818561189f565b9350611be7818560208601611520565b80840191505092915050565b6000611bff8284611bc2565b915081905092915050565b600082825260208201905092915050565b7f43616c6c6572206d757374206265206f776e6572000000000000000000000000600082015250565b6000611c51601483611c0a565b9150611c5c82611c1b565b602082019050919050565b60006020820190508181036000830152611c8081611c44565b9050919050565b611c9081611337565b82525050565b6000604082019050611cab6000830185611c87565b611cb86020830184611c87565b9392505050565b6000602082019050611cd46000830184611c87565b92915050565b7f4e487b7100000000000000000000000000000000000000000000000000000000600052603260045260246000fd5b7f53656174732061726520656d7074790000000000000000000000000000000000600082015250565b6000611d3f600f83611c0a565b9150611d4a82611d09565b602082019050919050565b60006020820190508181036000830152611d6e81611d32565b9050919050565b7f4e487b7100000000000000000000000000000000000000000000000000000000600052601160045260246000fd5b6000611daf82611337565b91507fffffffffffffffffffffffffffffffffffffffffffffffffffffffffffffffff8203611de157611de0611d75565b5b600182019050919050565b7f5468656174726520616c72656164792065786973747320666f722063616c6c6560008201527f7200000000000000000000000000000000000000000000000000000000000000602082015250565b6000611e48602183611c0a565b9150611e5382611dec565b604082019050919050565b60006020820190508181036000830152611e7781611e3b565b9050919050565b6000604082019050611e936000830185611676565b611ea06020830184611c87565b9392505050565b7f53656174732061726520616c7265616479206d696e7465640000000000000000600082015250565b6000611edd601883611c0a565b9150611ee882611ea7565b602082019050919050565b60006020820190508181036000830152611f0c81611ed0565b905091905056fea26469706673582212207fdcc2b93d8c95b474d306da33b2ef3ec6ebddbabc042ee32323c3584051ce7864736f6c634300080f0033",
  "immutableReferences": {},
  "source": "// SPDX-License-Identifier: MIT\npragma solidity ^0.8.9;\n\nimport \"./Tix.sol\";\n\ncontract Mintix {\n    // State Variables\n    // Owner of the contract\n    address payable public owner;\n\n    // Contract address of the Tix NFT\n    address public tixContractAddress;\n\n    string[] private _cities;\n\n    // Mapping cities that exist in platform\n    mapping(string => bool) private _cityExists;\n\n    // Mapping admin address to Theatre-CId, tCId\n    mapping(address => string) private _theatreByAdmin;\n\n    // Mapping cities to Theatre-CIds, tCId\n    mapping(string => string[]) private _theatresByCity;\n\n    // Mapping tCId to Movie-CIds, mCId\n    mapping(string => string[]) private _moviesForTheatre;\n\n    // Mapping mCId to sId\n    mapping(string => string[]) private _showsOfMovie;\n\n    // Mapping sId to seatMapping\n    // ticketMapping: seatNumber=>ocupancyStatus, ture if seat is taken\n    mapping(string => mapping(uint256 => bool)) public _seatsStatusOfShow;\n\n    // Events\n    event WithdrawalEvent(uint256 amount, uint256 when);\n    event AddTheatreEvent(string indexed city, string indexed tCId);\n    event AddMovieEvent(\n        string indexed tCId,\n        string indexed mCId,\n        string[] SIDs\n    );\n\n    constructor() payable {\n        owner = payable(msg.sender);\n    }\n\n    // Function Modifiers\n    modifier onlyOwner() {\n        require(msg.sender == owner, \"Caller must be owner\");\n        _;\n    }\n\n    // Functions\n    function compare(string memory str1, string memory str2) private pure returns (bool) {\n        return keccak256(abi.encodePacked(str1)) == keccak256(abi.encodePacked(str2));\n    }\n\n    function withdraw() public onlyOwner {\n        emit WithdrawalEvent(address(this).balance, block.timestamp);\n        owner.transfer(address(this).balance);\n    }\n\n    // To store the tix NFT Contract Address in state variable\n    function saveTixContract(address _tixContractAddress) public onlyOwner {\n        tixContractAddress = _tixContractAddress;\n    }\n\n    // List theatre in the platform\n    function addTheatre(string memory city, string memory tCId) public {\n        require(compare(_theatreByAdmin[msg.sender], \"\") == true, \"Theatre already exists for caller\");\n    \n        // Step1: Add city to cities\n        if (_cityExists[city] == false) {\n            _cities.push(city);\n            _cityExists[city] = true;\n        }\n\n        // Step2: Add city=>tCId to theatresBycity mapping\n        _theatresByCity[city].push(tCId);\n\n        // Step3: Add admin=>tCId to theatreByAdmin mapping\n        _theatreByAdmin[msg.sender] = tCId;\n\n        // Step4: Emit the event\n        emit AddTheatreEvent(city, tCId);\n    }\n\n    // List movie for the theatre\n    function addMovie(string memory mCId, string[] memory sId) public {\n        // Step1: Add mCId to moviesOfTheatre mapping\n        _moviesForTheatre[_theatreByAdmin[msg.sender]].push(mCId);\n\n        // Step2: Add mCId=>SIDs to showsOfMovie mapping\n        _showsOfMovie[mCId] = sId;\n\n        // Step3: Initialise seatOccupancyStatus\n        // Initialised by default\n\n        // Step4: Emit the event\n        emit AddMovieEvent(_theatreByAdmin[msg.sender], mCId, sId);\n    }\n\n    // Return list of cities\n    function getCities() public view returns (string[] memory cities) {\n        return _cities;\n    }\n\n    // Return theatres for a city\n    function getTheatres(string memory city)\n        public\n        view\n        returns (string[] memory theatres)\n    {\n        return _theatresByCity[city];\n    }\n\n    // Return movies for a theatre\n    function getMovies(string memory tCId)\n        public\n        view\n        returns (string[] memory movies)\n    {\n        return _moviesForTheatre[tCId];\n    }\n\n    // Function to mint Tix\n    function mintTix(string memory sId, uint256[] memory seatNumbers, uint256 tokenId) public {\n        // Step1: Call Tix contract function to mint NFT\n        Tix(tixContractAddress).mint(msg.sender, tokenId);\n\n        // Step2: Update the seatOccupancyStatus to true\n        for (uint256 i = 0; i < seatNumbers.length; i++) {\n            require(_seatsStatusOfShow[sId][seatNumbers[i]] == false, \"Seats are already minted\");\n            _seatsStatusOfShow[sId][seatNumbers[i]] = true;\n        }\n    }\n\n    // Function to burn Tix\n    function burnTix(string memory sId, uint256[] memory seatNumbers, uint256 tokenId) public {\n        // Step1: Call Tix contract function to burn NFT\n        Tix(tixContractAddress).burn(tokenId);\n\n        // Step2: Update the seatOccupancyStatus to false\n        for (uint256 i = 0; i < seatNumbers.length; i++) {\n            require(_seatsStatusOfShow[sId][seatNumbers[i]] == true, \"Seats are empty\");\n            _seatsStatusOfShow[sId][seatNumbers[i]] = false;\n        }\n    }\n}\n",
  "sourcePath": "/home/nisargsc/ssd/ethIndia/mintix/contracts/Mintix.sol",
  "compiler": {
    "name": "solc",
    "version": "0.8.15+commit.e14f2714.Emscripten.clang"
  },
  "schemaVersion": "3.4.8",
  "updatedAt": "2022-12-03T21:14:32.182Z",
  "networkType": "ethereum",
  "devdoc": {
    "kind": "dev",
    "methods": {},
    "version": 1
  },
  "userdoc": {
    "kind": "user",
    "methods": {},
    "version": 1
  }
}