{
  "contractName": "Tix",
  "abi": [
    {
      "inputs": [
        {
          "internalType": "string",
          "name": "_baseuri",
          "type": "string"
        }
      ],
      "stateMutability": "nonpayable",
      "type": "constructor"
    },
    {
      "anonymous": false,
      "inputs": [
        {
          "indexed": true,
          "internalType": "address",
          "name": "owner",
          "type": "address"
        },
        {
          "indexed": true,
          "internalType": "address",
          "name": "approved",
          "type": "address"
        },
        {
          "indexed": true,
          "internalType": "uint256",
          "name": "tokenId",
          "type": "uint256"
        }
      ],
      "name": "Approval",
      "type": "event"
    },
    {
      "anonymous": false,
      "inputs": [
        {
          "indexed": true,
          "internalType": "address",
          "name": "owner",
          "type": "address"
        },
        {
          "indexed": true,
          "internalType": "address",
          "name": "operator",
          "type": "address"
        },
        {
          "indexed": false,
          "internalType": "bool",
          "name": "approved",
          "type": "bool"
        }
      ],
      "name": "ApprovalForAll",
      "type": "event"
    },
    {
      "anonymous": false,
      "inputs": [
        {
          "indexed": true,
          "internalType": "address",
          "name": "from",
          "type": "address"
        },
        {
          "indexed": true,
          "internalType": "address",
          "name": "to",
          "type": "address"
        },
        {
          "indexed": true,
          "internalType": "uint256",
          "name": "tokenId",
          "type": "uint256"
        }
      ],
      "name": "Transfer",
      "type": "event"
    },
    {
      "inputs": [
        {
          "internalType": "address",
          "name": "to",
          "type": "address"
        },
        {
          "internalType": "uint256",
          "name": "tokenId",
          "type": "uint256"
        }
      ],
      "name": "approve",
      "outputs": [],
      "stateMutability": "nonpayable",
      "type": "function"
    },
    {
      "inputs": [
        {
          "internalType": "address",
          "name": "owner",
          "type": "address"
        }
      ],
      "name": "balanceOf",
      "outputs": [
        {
          "internalType": "uint256",
          "name": "",
          "type": "uint256"
        }
      ],
      "stateMutability": "view",
      "type": "function",
      "constant": true
    },
    {
      "inputs": [],
      "name": "contractOwner",
      "outputs": [
        {
          "internalType": "address payable",
          "name": "",
          "type": "address"
        }
      ],
      "stateMutability": "view",
      "type": "function",
      "constant": true
    },
    {
      "inputs": [
        {
          "internalType": "uint256",
          "name": "tokenId",
          "type": "uint256"
        }
      ],
      "name": "getApproved",
      "outputs": [
        {
          "internalType": "address",
          "name": "",
          "type": "address"
        }
      ],
      "stateMutability": "view",
      "type": "function",
      "constant": true
    },
    {
      "inputs": [
        {
          "internalType": "address",
          "name": "owner",
          "type": "address"
        },
        {
          "internalType": "address",
          "name": "operator",
          "type": "address"
        }
      ],
      "name": "isApprovedForAll",
      "outputs": [
        {
          "internalType": "bool",
          "name": "",
          "type": "bool"
        }
      ],
      "stateMutability": "view",
      "type": "function",
      "constant": true
    },
    {
      "inputs": [],
      "name": "mintixContractAddress",
      "outputs": [
        {
          "internalType": "address",
          "name": "",
          "type": "address"
        }
      ],
      "stateMutability": "view",
      "type": "function",
      "constant": true
    },
    {
      "inputs": [],
      "name": "name",
      "outputs": [
        {
          "internalType": "string",
          "name": "",
          "type": "string"
        }
      ],
      "stateMutability": "view",
      "type": "function",
      "constant": true
    },
    {
      "inputs": [
        {
          "internalType": "uint256",
          "name": "tokenId",
          "type": "uint256"
        }
      ],
      "name": "ownerOf",
      "outputs": [
        {
          "internalType": "address",
          "name": "",
          "type": "address"
        }
      ],
      "stateMutability": "view",
      "type": "function",
      "constant": true
    },
    {
      "inputs": [
        {
          "internalType": "address",
          "name": "from",
          "type": "address"
        },
        {
          "internalType": "address",
          "name": "to",
          "type": "address"
        },
        {
          "internalType": "uint256",
          "name": "tokenId",
          "type": "uint256"
        }
      ],
      "name": "safeTransferFrom",
      "outputs": [],
      "stateMutability": "nonpayable",
      "type": "function"
    },
    {
      "inputs": [
        {
          "internalType": "address",
          "name": "from",
          "type": "address"
        },
        {
          "internalType": "address",
          "name": "to",
          "type": "address"
        },
        {
          "internalType": "uint256",
          "name": "tokenId",
          "type": "uint256"
        },
        {
          "internalType": "bytes",
          "name": "data",
          "type": "bytes"
        }
      ],
      "name": "safeTransferFrom",
      "outputs": [],
      "stateMutability": "nonpayable",
      "type": "function"
    },
    {
      "inputs": [
        {
          "internalType": "address",
          "name": "operator",
          "type": "address"
        },
        {
          "internalType": "bool",
          "name": "approved",
          "type": "bool"
        }
      ],
      "name": "setApprovalForAll",
      "outputs": [],
      "stateMutability": "nonpayable",
      "type": "function"
    },
    {
      "inputs": [
        {
          "internalType": "bytes4",
          "name": "interfaceId",
          "type": "bytes4"
        }
      ],
      "name": "supportsInterface",
      "outputs": [
        {
          "internalType": "bool",
          "name": "",
          "type": "bool"
        }
      ],
      "stateMutability": "view",
      "type": "function",
      "constant": true
    },
    {
      "inputs": [],
      "name": "symbol",
      "outputs": [
        {
          "internalType": "string",
          "name": "",
          "type": "string"
        }
      ],
      "stateMutability": "view",
      "type": "function",
      "constant": true
    },
    {
      "inputs": [
        {
          "internalType": "uint256",
          "name": "tokenId",
          "type": "uint256"
        }
      ],
      "name": "tokenURI",
      "outputs": [
        {
          "internalType": "string",
          "name": "",
          "type": "string"
        }
      ],
      "stateMutability": "view",
      "type": "function",
      "constant": true
    },
    {
      "inputs": [
        {
          "internalType": "address",
          "name": "from",
          "type": "address"
        },
        {
          "internalType": "address",
          "name": "to",
          "type": "address"
        },
        {
          "internalType": "uint256",
          "name": "tokenId",
          "type": "uint256"
        }
      ],
      "name": "transferFrom",
      "outputs": [],
      "stateMutability": "nonpayable",
      "type": "function"
    },
    {
      "inputs": [
        {
          "internalType": "address",
          "name": "_mintixContractAddress",
          "type": "address"
        }
      ],
      "name": "saveMintixContract",
      "outputs": [],
      "stateMutability": "nonpayable",
      "type": "function"
    },
    {
      "inputs": [
        {
          "internalType": "address",
          "name": "to",
          "type": "address"
        },
        {
          "internalType": "uint256",
          "name": "tokenId",
          "type": "uint256"
        }
      ],
      "name": "mint",
      "outputs": [],
      "stateMutability": "nonpayable",
      "type": "function"
    },
    {
      "inputs": [
        {
          "internalType": "uint256",
          "name": "tokenId",
          "type": "uint256"
        }
      ],
      "name": "burn",
      "outputs": [],
      "stateMutability": "nonpayable",
      "type": "function"
    }
  ],
  "bytecode": "0x60806040526040518060200160405280600081525060069081620000249190620003be565b503480156200003257600080fd5b506040516200343e3803806200343e833981810160405281019062000058919062000613565b6040518060400160405280600a81526020017f4d696e746978204e4654000000000000000000000000000000000000000000008152506040518060400160405280600681526020017f7469784e465400000000000000000000000000000000000000000000000000008152508160009081620000d59190620003be565b508060019081620000e79190620003be565b50505033600760006101000a81548173ffffffffffffffffffffffffffffffffffffffff021916908373ffffffffffffffffffffffffffffffffffffffff16021790555080600690816200013c9190620003be565b505062000664565b600081519050919050565b7f4e487b7100000000000000000000000000000000000000000000000000000000600052604160045260246000fd5b7f4e487b7100000000000000000000000000000000000000000000000000000000600052602260045260246000fd5b60006002820490506001821680620001c657607f821691505b602082108103620001dc57620001db6200017e565b5b50919050565b60008190508160005260206000209050919050565b60006020601f8301049050919050565b600082821b905092915050565b600060088302620002467fffffffffffffffffffffffffffffffffffffffffffffffffffffffffffffffff8262000207565b62000252868362000207565b95508019841693508086168417925050509392505050565b6000819050919050565b6000819050919050565b60006200029f6200029962000293846200026a565b62000274565b6200026a565b9050919050565b6000819050919050565b620002bb836200027e565b620002d3620002ca82620002a6565b84845462000214565b825550505050565b600090565b620002ea620002db565b620002f7818484620002b0565b505050565b5b818110156200031f5762000313600082620002e0565b600181019050620002fd565b5050565b601f8211156200036e576200033881620001e2565b6200034384620001f7565b8101602085101562000353578190505b6200036b6200036285620001f7565b830182620002fc565b50505b505050565b600082821c905092915050565b6000620003936000198460080262000373565b1980831691505092915050565b6000620003ae838362000380565b9150826002028217905092915050565b620003c98262000144565b67ffffffffffffffff811115620003e557620003e46200014f565b5b620003f18254620001ad565b620003fe82828562000323565b600060209050601f83116001811462000436576000841562000421578287015190505b6200042d8582620003a0565b8655506200049d565b601f1984166200044686620001e2565b60005b82811015620004705784890151825560018201915060208501945060208101905062000449565b868310156200049057848901516200048c601f89168262000380565b8355505b6001600288020188555050505b505050505050565b6000604051905090565b600080fd5b600080fd5b600080fd5b600080fd5b6000601f19601f8301169050919050565b620004df82620004c3565b810181811067ffffffffffffffff821117156200050157620005006200014f565b5b80604052505050565b600062000516620004a5565b9050620005248282620004d4565b919050565b600067ffffffffffffffff8211156200054757620005466200014f565b5b6200055282620004c3565b9050602081019050919050565b60005b838110156200057f57808201518184015260208101905062000562565b838111156200058f576000848401525b50505050565b6000620005ac620005a68462000529565b6200050a565b905082815260208101848484011115620005cb57620005ca620004be565b5b620005d88482856200055f565b509392505050565b600082601f830112620005f857620005f7620004b9565b5b81516200060a84826020860162000595565b91505092915050565b6000602082840312156200062c576200062b620004af565b5b600082015167ffffffffffffffff8111156200064d576200064c620004b4565b5b6200065b84828501620005e0565b91505092915050565b612dca80620006746000396000f3fe608060405234801561001057600080fd5b50600436106101165760003560e01c806370459ab3116100a2578063b88d4fde11610071578063b88d4fde146102db578063c87b56dd146102f7578063cb613a6214610327578063ce606ee014610345578063e985e9c51461036357610116565b806370459ab31461025557806370a082311461027157806395d89b41146102a1578063a22cb465146102bf57610116565b806323b872dd116100e957806323b872dd146101b557806340c10f19146101d157806342842e0e146101ed57806342966c68146102095780636352211e1461022557610116565b806301ffc9a71461011b57806306fdde031461014b578063081812fc14610169578063095ea7b314610199575b600080fd5b61013560048036038101906101309190611e84565b610393565b6040516101429190611ecc565b60405180910390f35b610153610475565b6040516101609190611f80565b60405180910390f35b610183600480360381019061017e9190611fd8565b610507565b6040516101909190612046565b60405180910390f35b6101b360048036038101906101ae919061208d565b61054d565b005b6101cf60048036038101906101ca91906120cd565b610664565b005b6101eb60048036038101906101e6919061208d565b6106c4565b005b610207600480360381019061020291906120cd565b610762565b005b610223600480360381019061021e9190611fd8565b610782565b005b61023f600480360381019061023a9190611fd8565b61081e565b60405161024c9190612046565b60405180910390f35b61026f600480360381019061026a9190612120565b6108a4565b005b61028b60048036038101906102869190612120565b610978565b604051610298919061215c565b60405180910390f35b6102a9610a2f565b6040516102b69190611f80565b60405180910390f35b6102d960048036038101906102d491906121a3565b610ac1565b005b6102f560048036038101906102f09190612318565b610ad7565b005b610311600480360381019061030c9190611fd8565b610b39565b60405161031e9190611f80565b60405180910390f35b61032f610ba1565b60405161033c9190612046565b60405180910390f35b61034d610bc7565b60405161035a91906123bc565b60405180910390f35b61037d600480360381019061037891906123d7565b610bed565b60405161038a9190611ecc565b60405180910390f35b60007f80ac58cd000000000000000000000000000000000000000000000000000000007bffffffffffffffffffffffffffffffffffffffffffffffffffffffff1916827bffffffffffffffffffffffffffffffffffffffffffffffffffffffff1916148061045e57507f5b5e139f000000000000000000000000000000000000000000000000000000007bffffffffffffffffffffffffffffffffffffffffffffffffffffffff1916827bffffffffffffffffffffffffffffffffffffffffffffffffffffffff1916145b8061046e575061046d82610c81565b5b9050919050565b60606000805461048490612446565b80601f01602080910402602001604051908101604052809291908181526020018280546104b090612446565b80156104fd5780601f106104d2576101008083540402835291602001916104fd565b820191906000526020600020905b8154815290600101906020018083116104e057829003601f168201915b5050505050905090565b600061051282610ceb565b6004600083815260200190815260200160002060009054906101000a900473ffffffffffffffffffffffffffffffffffffffff169050919050565b60006105588261081e565b90508073ffffffffffffffffffffffffffffffffffffffff168373ffffffffffffffffffffffffffffffffffffffff16036105c8576040517f08c379a00000000000000000000000000000000000000000000000000000000081526004016105bf906124e9565b60405180910390fd5b8073ffffffffffffffffffffffffffffffffffffffff166105e7610d36565b73ffffffffffffffffffffffffffffffffffffffff161480610616575061061581610610610d36565b610bed565b5b610655576040517f08c379a000000000000000000000000000000000000000000000000000000000815260040161064c9061257b565b60405180910390fd5b61065f8383610d3e565b505050565b61067561066f610d36565b82610df7565b6106b4576040517f08c379a00000000000000000000000000000000000000000000000000000000081526004016106ab9061260d565b60405180910390fd5b6106bf838383610e8c565b505050565b600860009054906101000a900473ffffffffffffffffffffffffffffffffffffffff1673ffffffffffffffffffffffffffffffffffffffff163373ffffffffffffffffffffffffffffffffffffffff1614610754576040517f08c379a000000000000000000000000000000000000000000000000000000000815260040161074b90612679565b60405180910390fd5b61075e8282611185565b5050565b61077d83838360405180602001604052806000815250610ad7565b505050565b600860009054906101000a900473ffffffffffffffffffffffffffffffffffffffff1673ffffffffffffffffffffffffffffffffffffffff163373ffffffffffffffffffffffffffffffffffffffff1614610812576040517f08c379a000000000000000000000000000000000000000000000000000000000815260040161080990612679565b60405180910390fd5b61081b816113a2565b50565b60008061082a836113fe565b9050600073ffffffffffffffffffffffffffffffffffffffff168173ffffffffffffffffffffffffffffffffffffffff160361089b576040517f08c379a0000000000000000000000000000000000000000000000000000000008152600401610892906126e5565b60405180910390fd5b80915050919050565b600760009054906101000a900473ffffffffffffffffffffffffffffffffffffffff1673ffffffffffffffffffffffffffffffffffffffff163373ffffffffffffffffffffffffffffffffffffffff1614610934576040517f08c379a000000000000000000000000000000000000000000000000000000000815260040161092b90612751565b60405180910390fd5b80600860006101000a81548173ffffffffffffffffffffffffffffffffffffffff021916908373ffffffffffffffffffffffffffffffffffffffff16021790555050565b60008073ffffffffffffffffffffffffffffffffffffffff168273ffffffffffffffffffffffffffffffffffffffff16036109e8576040517f08c379a00000000000000000000000000000000000000000000000000000000081526004016109df906127e3565b60405180910390fd5b600360008373ffffffffffffffffffffffffffffffffffffffff1673ffffffffffffffffffffffffffffffffffffffff168152602001908152602001600020549050919050565b606060018054610a3e90612446565b80601f0160208091040260200160405190810160405280929190818152602001828054610a6a90612446565b8015610ab75780601f10610a8c57610100808354040283529160200191610ab7565b820191906000526020600020905b815481529060010190602001808311610a9a57829003601f168201915b5050505050905090565b610ad3610acc610d36565b838361143b565b5050565b610ae8610ae2610d36565b83610df7565b610b27576040517f08c379a0000000000000000000000000000000000000000000000000000000008152600401610b1e9061260d565b60405180910390fd5b610b33848484846115a7565b50505050565b6060610b4482610ceb565b6000610b4e611603565b90506000815111610b6e5760405180602001604052806000815250610b99565b80610b7884611695565b604051602001610b8992919061283f565b6040516020818303038152906040525b915050919050565b600860009054906101000a900473ffffffffffffffffffffffffffffffffffffffff1681565b600760009054906101000a900473ffffffffffffffffffffffffffffffffffffffff1681565b6000600560008473ffffffffffffffffffffffffffffffffffffffff1673ffffffffffffffffffffffffffffffffffffffff16815260200190815260200160002060008373ffffffffffffffffffffffffffffffffffffffff1673ffffffffffffffffffffffffffffffffffffffff16815260200190815260200160002060009054906101000a900460ff16905092915050565b60007f01ffc9a7000000000000000000000000000000000000000000000000000000007bffffffffffffffffffffffffffffffffffffffffffffffffffffffff1916827bffffffffffffffffffffffffffffffffffffffffffffffffffffffff1916149050919050565b610cf481611763565b610d33576040517f08c379a0000000000000000000000000000000000000000000000000000000008152600401610d2a906126e5565b60405180910390fd5b50565b600033905090565b816004600083815260200190815260200160002060006101000a81548173ffffffffffffffffffffffffffffffffffffffff021916908373ffffffffffffffffffffffffffffffffffffffff160217905550808273ffffffffffffffffffffffffffffffffffffffff16610db18361081e565b73ffffffffffffffffffffffffffffffffffffffff167f8c5be1e5ebec7d5bd14f71427d1e84f3dd0314c0f7b2291e5b200ac8c7c3b92560405160405180910390a45050565b600080610e038361081e565b90508073ffffffffffffffffffffffffffffffffffffffff168473ffffffffffffffffffffffffffffffffffffffff161480610e455750610e448185610bed565b5b80610e8357508373ffffffffffffffffffffffffffffffffffffffff16610e6b84610507565b73ffffffffffffffffffffffffffffffffffffffff16145b91505092915050565b8273ffffffffffffffffffffffffffffffffffffffff16610eac8261081e565b73ffffffffffffffffffffffffffffffffffffffff1614610f02576040517f08c379a0000000000000000000000000000000000000000000000000000000008152600401610ef9906128d5565b60405180910390fd5b600073ffffffffffffffffffffffffffffffffffffffff168273ffffffffffffffffffffffffffffffffffffffff1603610f71576040517f08c379a0000000000000000000000000000000000000000000000000000000008152600401610f6890612967565b60405180910390fd5b610f7e83838360016117a4565b8273ffffffffffffffffffffffffffffffffffffffff16610f9e8261081e565b73ffffffffffffffffffffffffffffffffffffffff1614610ff4576040517f08c379a0000000000000000000000000000000000000000000000000000000008152600401610feb906128d5565b60405180910390fd5b6004600082815260200190815260200160002060006101000a81549073ffffffffffffffffffffffffffffffffffffffff02191690556001600360008573ffffffffffffffffffffffffffffffffffffffff1673ffffffffffffffffffffffffffffffffffffffff168152602001908152602001600020600082825403925050819055506001600360008473ffffffffffffffffffffffffffffffffffffffff1673ffffffffffffffffffffffffffffffffffffffff16815260200190815260200160002060008282540192505081905550816002600083815260200190815260200160002060006101000a81548173ffffffffffffffffffffffffffffffffffffffff021916908373ffffffffffffffffffffffffffffffffffffffff160217905550808273ffffffffffffffffffffffffffffffffffffffff168473ffffffffffffffffffffffffffffffffffffffff167fddf252ad1be2c89b69c2b068fc378daa952ba7f163c4a11628f55a4df523b3ef60405160405180910390a461118083838360016118a1565b505050565b600073ffffffffffffffffffffffffffffffffffffffff168273ffffffffffffffffffffffffffffffffffffffff16036111f4576040517f08c379a00000000000000000000000000000000000000000000000000000000081526004016111eb906129d3565b60405180910390fd5b6111fd81611763565b1561123d576040517f08c379a000000000000000000000000000000000000000000000000000000000815260040161123490612a3f565b60405180910390fd5b61124b6000838360016117a4565b61125481611763565b15611294576040517f08c379a000000000000000000000000000000000000000000000000000000000815260040161128b90612a3f565b60405180910390fd5b6001600360008473ffffffffffffffffffffffffffffffffffffffff1673ffffffffffffffffffffffffffffffffffffffff16815260200190815260200160002060008282540192505081905550816002600083815260200190815260200160002060006101000a81548173ffffffffffffffffffffffffffffffffffffffff021916908373ffffffffffffffffffffffffffffffffffffffff160217905550808273ffffffffffffffffffffffffffffffffffffffff16600073ffffffffffffffffffffffffffffffffffffffff167fddf252ad1be2c89b69c2b068fc378daa952ba7f163c4a11628f55a4df523b3ef60405160405180910390a461139e6000838360016118a1565b5050565b6113b36113ad610d36565b82610df7565b6113f2576040517f08c379a00000000000000000000000000000000000000000000000000000000081526004016113e99061260d565b60405180910390fd5b6113fb816118a7565b50565b60006002600083815260200190815260200160002060009054906101000a900473ffffffffffffffffffffffffffffffffffffffff169050919050565b8173ffffffffffffffffffffffffffffffffffffffff168373ffffffffffffffffffffffffffffffffffffffff16036114a9576040517f08c379a00000000000000000000000000000000000000000000000000000000081526004016114a090612aab565b60405180910390fd5b80600560008573ffffffffffffffffffffffffffffffffffffffff1673ffffffffffffffffffffffffffffffffffffffff16815260200190815260200160002060008473ffffffffffffffffffffffffffffffffffffffff1673ffffffffffffffffffffffffffffffffffffffff16815260200190815260200160002060006101000a81548160ff0219169083151502179055508173ffffffffffffffffffffffffffffffffffffffff168373ffffffffffffffffffffffffffffffffffffffff167f17307eab39ab6107e8899845ad3d59bd9653f200f220920489ca2b5937696c318360405161159a9190611ecc565b60405180910390a3505050565b6115b2848484610e8c565b6115be848484846119f5565b6115fd576040517f08c379a00000000000000000000000000000000000000000000000000000000081526004016115f490612b3d565b60405180910390fd5b50505050565b60606006805461161290612446565b80601f016020809104026020016040519081016040528092919081815260200182805461163e90612446565b801561168b5780601f106116605761010080835404028352916020019161168b565b820191906000526020600020905b81548152906001019060200180831161166e57829003601f168201915b5050505050905090565b6060600060016116a484611b7c565b01905060008167ffffffffffffffff8111156116c3576116c26121ed565b5b6040519080825280601f01601f1916602001820160405280156116f55781602001600182028036833780820191505090505b509050600082602001820190505b600115611758578080600190039150507f3031323334353637383961626364656600000000000000000000000000000000600a86061a8153600a858161174c5761174b612b5d565b5b04945060008503611703575b819350505050919050565b60008073ffffffffffffffffffffffffffffffffffffffff16611785836113fe565b73ffffffffffffffffffffffffffffffffffffffff1614159050919050565b60006117af8361081e565b9050600073ffffffffffffffffffffffffffffffffffffffff168573ffffffffffffffffffffffffffffffffffffffff16148061184f57508073ffffffffffffffffffffffffffffffffffffffff168573ffffffffffffffffffffffffffffffffffffffff1614801561184e5750600073ffffffffffffffffffffffffffffffffffffffff168473ffffffffffffffffffffffffffffffffffffffff16145b5b61188e576040517f08c379a000000000000000000000000000000000000000000000000000000000815260040161188590612bd8565b60405180910390fd5b61189a85858585611ccf565b5050505050565b50505050565b60006118b28261081e565b90506118c28160008460016117a4565b6118cb8261081e565b90506004600083815260200190815260200160002060006101000a81549073ffffffffffffffffffffffffffffffffffffffff02191690556001600360008373ffffffffffffffffffffffffffffffffffffffff1673ffffffffffffffffffffffffffffffffffffffff168152602001908152602001600020600082825403925050819055506002600083815260200190815260200160002060006101000a81549073ffffffffffffffffffffffffffffffffffffffff021916905581600073ffffffffffffffffffffffffffffffffffffffff168273ffffffffffffffffffffffffffffffffffffffff167fddf252ad1be2c89b69c2b068fc378daa952ba7f163c4a11628f55a4df523b3ef60405160405180910390a46119f18160008460016118a1565b5050565b6000611a168473ffffffffffffffffffffffffffffffffffffffff16611df5565b15611b6f578373ffffffffffffffffffffffffffffffffffffffff1663150b7a02611a3f610d36565b8786866040518563ffffffff1660e01b8152600401611a619493929190612c4d565b6020604051808303816000875af1925050508015611a9d57506040513d601f19601f82011682018060405250810190611a9a9190612cae565b60015b611b1f573d8060008114611acd576040519150601f19603f3d011682016040523d82523d6000602084013e611ad2565b606091505b506000815103611b17576040517f08c379a0000000000000000000000000000000000000000000000000000000008152600401611b0e90612b3d565b60405180910390fd5b805181602001fd5b63150b7a0260e01b7bffffffffffffffffffffffffffffffffffffffffffffffffffffffff1916817bffffffffffffffffffffffffffffffffffffffffffffffffffffffff191614915050611b74565b600190505b949350505050565b600080600090507a184f03e93ff9f4daa797ed6e38ed64bf6a1f0100000000000000008310611bda577a184f03e93ff9f4daa797ed6e38ed64bf6a1f0100000000000000008381611bd057611bcf612b5d565b5b0492506040810190505b6d04ee2d6d415b85acef81000000008310611c17576d04ee2d6d415b85acef81000000008381611c0d57611c0c612b5d565b5b0492506020810190505b662386f26fc100008310611c4657662386f26fc100008381611c3c57611c3b612b5d565b5b0492506010810190505b6305f5e1008310611c6f576305f5e1008381611c6557611c64612b5d565b5b0492506008810190505b6127108310611c94576127108381611c8a57611c89612b5d565b5b0492506004810190505b60648310611cb75760648381611cad57611cac612b5d565b5b0492506002810190505b600a8310611cc6576001810190505b80915050919050565b6001811115611def57600073ffffffffffffffffffffffffffffffffffffffff168473ffffffffffffffffffffffffffffffffffffffff1614611d635780600360008673ffffffffffffffffffffffffffffffffffffffff1673ffffffffffffffffffffffffffffffffffffffff1681526020019081526020016000206000828254611d5b9190612d0a565b925050819055505b600073ffffffffffffffffffffffffffffffffffffffff168373ffffffffffffffffffffffffffffffffffffffff1614611dee5780600360008573ffffffffffffffffffffffffffffffffffffffff1673ffffffffffffffffffffffffffffffffffffffff1681526020019081526020016000206000828254611de69190612d3e565b925050819055505b5b50505050565b6000808273ffffffffffffffffffffffffffffffffffffffff163b119050919050565b6000604051905090565b600080fd5b600080fd5b60007fffffffff0000000000000000000000000000000000000000000000000000000082169050919050565b611e6181611e2c565b8114611e6c57600080fd5b50565b600081359050611e7e81611e58565b92915050565b600060208284031215611e9a57611e99611e22565b5b6000611ea884828501611e6f565b91505092915050565b60008115159050919050565b611ec681611eb1565b82525050565b6000602082019050611ee16000830184611ebd565b92915050565b600081519050919050565b600082825260208201905092915050565b60005b83811015611f21578082015181840152602081019050611f06565b83811115611f30576000848401525b50505050565b6000601f19601f8301169050919050565b6000611f5282611ee7565b611f5c8185611ef2565b9350611f6c818560208601611f03565b611f7581611f36565b840191505092915050565b60006020820190508181036000830152611f9a8184611f47565b905092915050565b6000819050919050565b611fb581611fa2565b8114611fc057600080fd5b50565b600081359050611fd281611fac565b92915050565b600060208284031215611fee57611fed611e22565b5b6000611ffc84828501611fc3565b91505092915050565b600073ffffffffffffffffffffffffffffffffffffffff82169050919050565b600061203082612005565b9050919050565b61204081612025565b82525050565b600060208201905061205b6000830184612037565b92915050565b61206a81612025565b811461207557600080fd5b50565b60008135905061208781612061565b92915050565b600080604083850312156120a4576120a3611e22565b5b60006120b285828601612078565b92505060206120c385828601611fc3565b9150509250929050565b6000806000606084860312156120e6576120e5611e22565b5b60006120f486828701612078565b935050602061210586828701612078565b925050604061211686828701611fc3565b9150509250925092565b60006020828403121561213657612135611e22565b5b600061214484828501612078565b91505092915050565b61215681611fa2565b82525050565b6000602082019050612171600083018461214d565b92915050565b61218081611eb1565b811461218b57600080fd5b50565b60008135905061219d81612177565b92915050565b600080604083850312156121ba576121b9611e22565b5b60006121c885828601612078565b92505060206121d98582860161218e565b9150509250929050565b600080fd5b600080fd5b7f4e487b7100000000000000000000000000000000000000000000000000000000600052604160045260246000fd5b61222582611f36565b810181811067ffffffffffffffff82111715612244576122436121ed565b5b80604052505050565b6000612257611e18565b9050612263828261221c565b919050565b600067ffffffffffffffff821115612283576122826121ed565b5b61228c82611f36565b9050602081019050919050565b82818337600083830152505050565b60006122bb6122b684612268565b61224d565b9050828152602081018484840111156122d7576122d66121e8565b5b6122e2848285612299565b509392505050565b600082601f8301126122ff576122fe6121e3565b5b813561230f8482602086016122a8565b91505092915050565b6000806000806080858703121561233257612331611e22565b5b600061234087828801612078565b945050602061235187828801612078565b935050604061236287828801611fc3565b925050606085013567ffffffffffffffff81111561238357612382611e27565b5b61238f878288016122ea565b91505092959194509250565b60006123a682612005565b9050919050565b6123b68161239b565b82525050565b60006020820190506123d160008301846123ad565b92915050565b600080604083850312156123ee576123ed611e22565b5b60006123fc85828601612078565b925050602061240d85828601612078565b9150509250929050565b7f4e487b7100000000000000000000000000000000000000000000000000000000600052602260045260246000fd5b6000600282049050600182168061245e57607f821691505b60208210810361247157612470612417565b5b50919050565b7f4552433732313a20617070726f76616c20746f2063757272656e74206f776e6560008201527f7200000000000000000000000000000000000000000000000000000000000000602082015250565b60006124d3602183611ef2565b91506124de82612477565b604082019050919050565b60006020820190508181036000830152612502816124c6565b9050919050565b7f4552433732313a20617070726f76652063616c6c6572206973206e6f7420746f60008201527f6b656e206f776e6572206f7220617070726f76656420666f7220616c6c000000602082015250565b6000612565603d83611ef2565b915061257082612509565b604082019050919050565b6000602082019050818103600083015261259481612558565b9050919050565b7f4552433732313a2063616c6c6572206973206e6f7420746f6b656e206f776e6560008201527f72206f7220617070726f76656400000000000000000000000000000000000000602082015250565b60006125f7602d83611ef2565b91506126028261259b565b604082019050919050565b60006020820190508181036000830152612626816125ea565b9050919050565b7f43616c6c6572206d757374206265206d696e74697820706c6174666f726d0000600082015250565b6000612663601e83611ef2565b915061266e8261262d565b602082019050919050565b6000602082019050818103600083015261269281612656565b9050919050565b7f4552433732313a20696e76616c696420746f6b656e2049440000000000000000600082015250565b60006126cf601883611ef2565b91506126da82612699565b602082019050919050565b600060208201905081810360008301526126fe816126c2565b9050919050565b7f43616c6c6572206d757374206265206f776e6572000000000000000000000000600082015250565b600061273b601483611ef2565b915061274682612705565b602082019050919050565b6000602082019050818103600083015261276a8161272e565b9050919050565b7f4552433732313a2061646472657373207a65726f206973206e6f74206120766160008201527f6c6964206f776e65720000000000000000000000000000000000000000000000602082015250565b60006127cd602983611ef2565b91506127d882612771565b604082019050919050565b600060208201905081810360008301526127fc816127c0565b9050919050565b600081905092915050565b600061281982611ee7565b6128238185612803565b9350612833818560208601611f03565b80840191505092915050565b600061284b828561280e565b9150612857828461280e565b91508190509392505050565b7f4552433732313a207472616e736665722066726f6d20696e636f72726563742060008201527f6f776e6572000000000000000000000000000000000000000000000000000000602082015250565b60006128bf602583611ef2565b91506128ca82612863565b604082019050919050565b600060208201905081810360008301526128ee816128b2565b9050919050565b7f4552433732313a207472616e7366657220746f20746865207a65726f2061646460008201527f7265737300000000000000000000000000000000000000000000000000000000602082015250565b6000612951602483611ef2565b915061295c826128f5565b604082019050919050565b6000602082019050818103600083015261298081612944565b9050919050565b7f4552433732313a206d696e7420746f20746865207a65726f2061646472657373600082015250565b60006129bd602083611ef2565b91506129c882612987565b602082019050919050565b600060208201905081810360008301526129ec816129b0565b9050919050565b7f4552433732313a20746f6b656e20616c7265616479206d696e74656400000000600082015250565b6000612a29601c83611ef2565b9150612a34826129f3565b602082019050919050565b60006020820190508181036000830152612a5881612a1c565b9050919050565b7f4552433732313a20617070726f766520746f2063616c6c657200000000000000600082015250565b6000612a95601983611ef2565b9150612aa082612a5f565b602082019050919050565b60006020820190508181036000830152612ac481612a88565b9050919050565b7f4552433732313a207472616e7366657220746f206e6f6e20455243373231526560008201527f63656976657220696d706c656d656e7465720000000000000000000000000000602082015250565b6000612b27603283611ef2565b9150612b3282612acb565b604082019050919050565b60006020820190508181036000830152612b5681612b1a565b9050919050565b7f4e487b7100000000000000000000000000000000000000000000000000000000600052601260045260246000fd5b7f54697820617265206e6f6e2d7472616e7366657261626c650000000000000000600082015250565b6000612bc2601883611ef2565b9150612bcd82612b8c565b602082019050919050565b60006020820190508181036000830152612bf181612bb5565b9050919050565b600081519050919050565b600082825260208201905092915050565b6000612c1f82612bf8565b612c298185612c03565b9350612c39818560208601611f03565b612c4281611f36565b840191505092915050565b6000608082019050612c626000830187612037565b612c6f6020830186612037565b612c7c604083018561214d565b8181036060830152612c8e8184612c14565b905095945050505050565b600081519050612ca881611e58565b92915050565b600060208284031215612cc457612cc3611e22565b5b6000612cd284828501612c99565b91505092915050565b7f4e487b7100000000000000000000000000000000000000000000000000000000600052601160045260246000fd5b6000612d1582611fa2565b9150612d2083611fa2565b925082821015612d3357612d32612cdb565b5b828203905092915050565b6000612d4982611fa2565b9150612d5483611fa2565b9250827fffffffffffffffffffffffffffffffffffffffffffffffffffffffffffffffff03821115612d8957612d88612cdb565b5b82820190509291505056fea2646970667358221220ce07e5f97ad0b0e9de9e7c039d0d804c529966accab97865272ce4618fbe0b8964736f6c634300080f0033",
  "immutableReferences": {},
  "source": "// SPDX-License-Identifier: MIT\npragma solidity ^0.8.0;\n\nimport \"../node_modules/@openzeppelin/contracts/token/ERC721/extensions/ERC721Burnable.sol\";\n\ncontract Tix is ERC721Burnable {\n    // State Variables\n    string baseuri = \"\";\n\n    // Owner of the contract\n    address payable public contractOwner;\n    // Mintix Platform Conctract\n    address public mintixContractAddress;\n\n    constructor(string memory _baseuri) ERC721(\"Mintix NFT\", \"tixNFT\") {\n        contractOwner = payable(msg.sender);\n        baseuri = _baseuri;\n    }\n\n    // Function Modifiers\n    modifier onlyOwner() {\n        require(msg.sender == contractOwner, \"Caller must be owner\");\n        _;\n    }\n\n    modifier onlyMintixContract() {\n        require(\n            msg.sender == mintixContractAddress,\n            \"Caller must be mintix platform\"\n        );\n        _;\n    }\n\n    // To store the mintix Platform Contract Address in state variable\n    function saveMintixContract(address _mintixContractAddress)\n        public\n        onlyOwner\n    {\n        mintixContractAddress = _mintixContractAddress;\n    }\n\n    function _baseURI() internal view override returns (string memory) {\n        return baseuri;\n    }\n\n    // Hook used to make prevent transfers\n    function _beforeTokenTransfer(\n        address from,\n        address to,\n        uint256 tokenId,\n        uint256 batchSize\n    ) internal override {\n        address tokenOwner = ownerOf(tokenId);\n        require(\n            from == address(0) || (from == tokenOwner && to == address(0)),\n            \"Tix are non-transferable\"\n        );\n        super._beforeTokenTransfer(from, to, tokenId, batchSize);\n    }\n\n    function mint(address to, uint256 tokenId) public onlyMintixContract {\n        super._mint(to, tokenId);\n    }\n\n    function burn(uint256 tokenId) public override onlyMintixContract {\n        super.burn(tokenId);\n    }\n}\n",
  "sourcePath": "/home/nisargsc/ssd/ethIndia/mintix/contracts/Tix.sol",
  "compiler": {
    "name": "solc",
    "version": "0.8.15+commit.e14f2714.Emscripten.clang"
  },
  "schemaVersion": "3.4.8",
  "updatedAt": "2022-12-03T21:14:32.226Z",
  "networkType": "ethereum",
  "devdoc": {
    "kind": "dev",
    "methods": {
      "approve(address,uint256)": {
        "details": "See {IERC721-approve}."
      },
      "balanceOf(address)": {
        "details": "See {IERC721-balanceOf}."
      },
      "burn(uint256)": {
        "details": "Burns `tokenId`. See {ERC721-_burn}. Requirements: - The caller must own `tokenId` or be an approved operator."
      },
      "getApproved(uint256)": {
        "details": "See {IERC721-getApproved}."
      },
      "isApprovedForAll(address,address)": {
        "details": "See {IERC721-isApprovedForAll}."
      },
      "name()": {
        "details": "See {IERC721Metadata-name}."
      },
      "ownerOf(uint256)": {
        "details": "See {IERC721-ownerOf}."
      },
      "safeTransferFrom(address,address,uint256)": {
        "details": "See {IERC721-safeTransferFrom}."
      },
      "safeTransferFrom(address,address,uint256,bytes)": {
        "details": "See {IERC721-safeTransferFrom}."
      },
      "setApprovalForAll(address,bool)": {
        "details": "See {IERC721-setApprovalForAll}."
      },
      "supportsInterface(bytes4)": {
        "details": "See {IERC165-supportsInterface}."
      },
      "symbol()": {
        "details": "See {IERC721Metadata-symbol}."
      },
      "tokenURI(uint256)": {
        "details": "See {IERC721Metadata-tokenURI}."
      },
      "transferFrom(address,address,uint256)": {
        "details": "See {IERC721-transferFrom}."
      }
    },
    "version": 1
  },
  "userdoc": {
    "kind": "user",
    "methods": {},
    "version": 1
  }
}